{
  "_format": "hh-sol-artifact-1",
  "contractName": "LipToken",
  "sourceName": "contracts/LipToken.sol",
  "abi": [
    {
      "inputs": [
        {
          "internalType": "string",
          "name": "_name",
          "type": "string"
        },
        {
          "internalType": "string",
          "name": "_symbol",
          "type": "string"
        }
      ],
      "stateMutability": "nonpayable",
      "type": "constructor"
    },
    {
      "anonymous": false,
      "inputs": [
        {
          "indexed": true,
          "internalType": "address",
          "name": "owner",
          "type": "address"
        },
        {
          "indexed": true,
          "internalType": "address",
          "name": "approved",
          "type": "address"
        },
        {
          "indexed": true,
          "internalType": "uint256",
          "name": "tokenId",
          "type": "uint256"
        }
      ],
      "name": "Approval",
      "type": "event"
    },
    {
      "anonymous": false,
      "inputs": [
        {
          "indexed": true,
          "internalType": "address",
          "name": "owner",
          "type": "address"
        },
        {
          "indexed": true,
          "internalType": "address",
          "name": "operator",
          "type": "address"
        },
        {
          "indexed": false,
          "internalType": "bool",
          "name": "approved",
          "type": "bool"
        }
      ],
      "name": "ApprovalForAll",
      "type": "event"
    },
    {
      "anonymous": false,
      "inputs": [
        {
          "indexed": true,
          "internalType": "address",
          "name": "owner",
          "type": "address"
        },
        {
          "indexed": false,
          "internalType": "uint256",
          "name": "id",
          "type": "uint256"
        },
        {
          "indexed": false,
          "internalType": "uint256",
          "name": "dna",
          "type": "uint256"
        },
        {
          "indexed": false,
          "internalType": "uint256",
          "name": "ran",
          "type": "uint256"
        }
      ],
      "name": "NewLip",
      "type": "event"
    },
    {
      "anonymous": false,
      "inputs": [
        {
          "indexed": true,
          "internalType": "address",
          "name": "previousOwner",
          "type": "address"
        },
        {
          "indexed": true,
          "internalType": "address",
          "name": "newOwner",
          "type": "address"
        }
      ],
      "name": "OwnershipTransferred",
      "type": "event"
    },
    {
      "anonymous": false,
      "inputs": [
        {
          "indexed": true,
          "internalType": "address",
          "name": "from",
          "type": "address"
        },
        {
          "indexed": true,
          "internalType": "address",
          "name": "to",
          "type": "address"
        },
        {
          "indexed": true,
          "internalType": "uint256",
          "name": "tokenId",
          "type": "uint256"
        }
      ],
      "name": "Transfer",
      "type": "event"
    },
    {
      "anonymous": false,
      "inputs": [
        {
          "indexed": false,
          "internalType": "uint256",
          "name": "rarity",
          "type": "uint256"
        }
      ],
      "name": "settingRar",
      "type": "event"
    },
    {
      "inputs": [
        {
          "internalType": "address",
          "name": "to",
          "type": "address"
        },
        {
          "internalType": "uint256",
          "name": "tokenId",
          "type": "uint256"
        }
      ],
      "name": "approve",
      "outputs": [],
      "stateMutability": "nonpayable",
      "type": "function"
    },
    {
      "inputs": [
        {
          "internalType": "address",
          "name": "owner",
          "type": "address"
        }
      ],
      "name": "balanceOf",
      "outputs": [
        {
          "internalType": "uint256",
          "name": "",
          "type": "uint256"
        }
      ],
      "stateMutability": "view",
      "type": "function"
    },
    {
      "inputs": [],
      "name": "count",
      "outputs": [
        {
          "internalType": "uint256",
          "name": "",
          "type": "uint256"
        }
      ],
      "stateMutability": "view",
      "type": "function"
    },
    {
      "inputs": [
        {
          "internalType": "string",
          "name": "_name",
          "type": "string"
        }
      ],
      "name": "createRandomLip",
      "outputs": [],
      "stateMutability": "nonpayable",
      "type": "function"
    },
    {
      "inputs": [
        {
          "internalType": "uint256",
          "name": "tokenId",
          "type": "uint256"
        }
      ],
      "name": "getApproved",
      "outputs": [
        {
          "internalType": "address",
          "name": "",
          "type": "address"
        }
      ],
      "stateMutability": "view",
      "type": "function"
    },
    {
      "inputs": [],
      "name": "getLips",
      "outputs": [
        {
          "components": [
            {
              "internalType": "string",
              "name": "name",
              "type": "string"
            },
            {
              "internalType": "uint256",
              "name": "id",
              "type": "uint256"
            },
            {
              "internalType": "uint256",
              "name": "dna",
              "type": "uint256"
            },
            {
              "internalType": "uint8",
              "name": "level",
              "type": "uint8"
            },
            {
              "internalType": "uint8",
              "name": "rarity",
              "type": "uint8"
            }
          ],
          "internalType": "struct LipToken.Lip[]",
          "name": "",
          "type": "tuple[]"
        }
      ],
      "stateMutability": "view",
      "type": "function"
    },
    {
      "inputs": [
        {
          "internalType": "address",
          "name": "_owner",
          "type": "address"
        }
      ],
      "name": "getOwnerLips",
      "outputs": [
        {
          "components": [
            {
              "internalType": "string",
              "name": "name",
              "type": "string"
            },
            {
              "internalType": "uint256",
              "name": "id",
              "type": "uint256"
            },
            {
              "internalType": "uint256",
              "name": "dna",
              "type": "uint256"
            },
            {
              "internalType": "uint8",
              "name": "level",
              "type": "uint8"
            },
            {
              "internalType": "uint8",
              "name": "rarity",
              "type": "uint8"
            }
          ],
          "internalType": "struct LipToken.Lip[]",
          "name": "",
          "type": "tuple[]"
        }
      ],
      "stateMutability": "view",
      "type": "function"
    },
    {
      "inputs": [
        {
          "internalType": "address",
          "name": "x",
          "type": "address"
        }
      ],
      "name": "getRarity",
      "outputs": [
        {
          "components": [
            {
              "internalType": "uint8",
              "name": "species",
              "type": "uint8"
            }
          ],
          "internalType": "struct LipToken.Rarity[]",
          "name": "",
          "type": "tuple[]"
        }
      ],
      "stateMutability": "view",
      "type": "function"
    },
    {
      "inputs": [
        {
          "internalType": "address",
          "name": "owner",
          "type": "address"
        },
        {
          "internalType": "address",
          "name": "operator",
          "type": "address"
        }
      ],
      "name": "isApprovedForAll",
      "outputs": [
        {
          "internalType": "bool",
          "name": "",
          "type": "bool"
        }
      ],
      "stateMutability": "view",
      "type": "function"
    },
    {
      "inputs": [
        {
          "internalType": "uint256",
          "name": "x",
          "type": "uint256"
        }
      ],
      "name": "isContentOwned",
      "outputs": [
        {
          "internalType": "bool",
          "name": "",
          "type": "bool"
        }
      ],
      "stateMutability": "pure",
      "type": "function"
    },
    {
      "inputs": [
        {
          "internalType": "uint256",
          "name": "_lipId",
          "type": "uint256"
        }
      ],
      "name": "levelUp",
      "outputs": [],
      "stateMutability": "nonpayable",
      "type": "function"
    },
    {
      "inputs": [
        {
          "internalType": "uint256",
          "name": "",
          "type": "uint256"
        }
      ],
      "name": "lips",
      "outputs": [
        {
          "internalType": "string",
          "name": "name",
          "type": "string"
        },
        {
          "internalType": "uint256",
          "name": "id",
          "type": "uint256"
        },
        {
          "internalType": "uint256",
          "name": "dna",
          "type": "uint256"
        },
        {
          "internalType": "uint8",
          "name": "level",
          "type": "uint8"
        },
        {
          "internalType": "uint8",
          "name": "rarity",
          "type": "uint8"
        }
      ],
      "stateMutability": "view",
      "type": "function"
    },
    {
      "inputs": [],
      "name": "name",
      "outputs": [
        {
          "internalType": "string",
          "name": "",
          "type": "string"
        }
      ],
      "stateMutability": "view",
      "type": "function"
    },
    {
      "inputs": [],
      "name": "owner",
      "outputs": [
        {
          "internalType": "address",
          "name": "",
          "type": "address"
        }
      ],
      "stateMutability": "view",
      "type": "function"
    },
    {
      "inputs": [
        {
          "internalType": "uint256",
          "name": "tokenId",
          "type": "uint256"
        }
      ],
      "name": "ownerOf",
      "outputs": [
        {
          "internalType": "address",
          "name": "",
          "type": "address"
        }
      ],
      "stateMutability": "view",
      "type": "function"
    },
    {
      "inputs": [
        {
          "internalType": "uint256",
          "name": "",
          "type": "uint256"
        }
      ],
      "name": "rarr",
      "outputs": [
        {
          "internalType": "uint8",
          "name": "species",
          "type": "uint8"
        }
      ],
      "stateMutability": "view",
      "type": "function"
    },
    {
      "inputs": [],
      "name": "renounceOwnership",
      "outputs": [],
      "stateMutability": "nonpayable",
      "type": "function"
    },
    {
      "inputs": [
        {
          "internalType": "address",
          "name": "from",
          "type": "address"
        },
        {
          "internalType": "address",
          "name": "to",
          "type": "address"
        },
        {
          "internalType": "uint256",
          "name": "tokenId",
          "type": "uint256"
        }
      ],
      "name": "safeTransferFrom",
      "outputs": [],
      "stateMutability": "nonpayable",
      "type": "function"
    },
    {
      "inputs": [
        {
          "internalType": "address",
          "name": "from",
          "type": "address"
        },
        {
          "internalType": "address",
          "name": "to",
          "type": "address"
        },
        {
          "internalType": "uint256",
          "name": "tokenId",
          "type": "uint256"
        },
        {
          "internalType": "bytes",
          "name": "data",
          "type": "bytes"
        }
      ],
      "name": "safeTransferFrom",
      "outputs": [],
      "stateMutability": "nonpayable",
      "type": "function"
    },
    {
      "inputs": [
        {
          "internalType": "address",
          "name": "operator",
          "type": "address"
        },
        {
          "internalType": "bool",
          "name": "approved",
          "type": "bool"
        }
      ],
      "name": "setApprovalForAll",
      "outputs": [],
      "stateMutability": "nonpayable",
      "type": "function"
    },
    {
      "inputs": [
        {
          "internalType": "bytes4",
          "name": "interfaceId",
          "type": "bytes4"
        }
      ],
      "name": "supportsInterface",
      "outputs": [
        {
          "internalType": "bool",
          "name": "",
          "type": "bool"
        }
      ],
      "stateMutability": "view",
      "type": "function"
    },
    {
      "inputs": [],
      "name": "symbol",
      "outputs": [
        {
          "internalType": "string",
          "name": "",
          "type": "string"
        }
      ],
      "stateMutability": "view",
      "type": "function"
    },
    {
      "inputs": [
        {
          "internalType": "uint256",
          "name": "tokenId",
          "type": "uint256"
        }
      ],
      "name": "tokenURI",
      "outputs": [
        {
          "internalType": "string",
          "name": "",
          "type": "string"
        }
      ],
      "stateMutability": "view",
      "type": "function"
    },
    {
      "inputs": [
        {
          "internalType": "address",
          "name": "from",
          "type": "address"
        },
        {
          "internalType": "address",
          "name": "to",
          "type": "address"
        },
        {
          "internalType": "uint256",
          "name": "tokenId",
          "type": "uint256"
        }
      ],
      "name": "transferFrom",
      "outputs": [],
      "stateMutability": "nonpayable",
      "type": "function"
    },
    {
      "inputs": [
        {
          "internalType": "address",
          "name": "newOwner",
          "type": "address"
        }
      ],
      "name": "transferOwnership",
      "outputs": [],
      "stateMutability": "nonpayable",
      "type": "function"
    },
    {
      "inputs": [],
      "name": "withdraw",
      "outputs": [],
      "stateMutability": "payable",
      "type": "function"
    }
  ],
  "bytecode": "0x60806040523480156200001157600080fd5b5060405162003f9d38038062003f9d8339818101604052810190620000379190620003b0565b818181600090805190602001906200005192919062000163565b5080600190805190602001906200006a92919062000163565b5050506200008d620000816200009560201b60201c565b6200009d60201b60201c565b50506200049a565b600033905090565b6000600660009054906101000a900473ffffffffffffffffffffffffffffffffffffffff16905081600660006101000a81548173ffffffffffffffffffffffffffffffffffffffff021916908373ffffffffffffffffffffffffffffffffffffffff1602179055508173ffffffffffffffffffffffffffffffffffffffff168173ffffffffffffffffffffffffffffffffffffffff167f8be0079c531659141344cd1fd0a4f28419497f9722a3daafe3b4186f6b6457e060405160405180910390a35050565b828054620001719062000464565b90600052602060002090601f016020900481019282620001955760008555620001e1565b82601f10620001b057805160ff1916838001178555620001e1565b82800160010185558215620001e1579182015b82811115620001e0578251825591602001919060010190620001c3565b5b509050620001f09190620001f4565b5090565b5b808211156200020f576000816000905550600101620001f5565b5090565b6000604051905090565b600080fd5b600080fd5b600080fd5b600080fd5b6000601f19601f8301169050919050565b7f4e487b7100000000000000000000000000000000000000000000000000000000600052604160045260246000fd5b6200027c8262000231565b810181811067ffffffffffffffff821117156200029e576200029d62000242565b5b80604052505050565b6000620002b362000213565b9050620002c1828262000271565b919050565b600067ffffffffffffffff821115620002e457620002e362000242565b5b620002ef8262000231565b9050602081019050919050565b60005b838110156200031c578082015181840152602081019050620002ff565b838111156200032c576000848401525b50505050565b6000620003496200034384620002c6565b620002a7565b9050828152602081018484840111156200036857620003676200022c565b5b62000375848285620002fc565b509392505050565b600082601f83011262000395576200039462000227565b5b8151620003a784826020860162000332565b91505092915050565b60008060408385031215620003ca57620003c96200021d565b5b600083015167ffffffffffffffff811115620003eb57620003ea62000222565b5b620003f9858286016200037d565b925050602083015167ffffffffffffffff8111156200041d576200041c62000222565b5b6200042b858286016200037d565b9150509250929050565b7f4e487b7100000000000000000000000000000000000000000000000000000000600052602260045260246000fd5b600060028204905060018216806200047d57607f821691505b6020821081141562000494576200049362000435565b5b50919050565b613af380620004aa6000396000f3fe6080604052600436106101815760003560e01c806370a08231116100d157806395d89b411161008a578063c87b56dd11610064578063c87b56dd14610589578063ccb6baea146105c6578063e985e9c514610603578063f2fde38b1461064057610181565b806395d89b411461050c578063a22cb46514610537578063b88d4fde1461056057610181565b806370a08231146103e8578063715018a6146104255780637fb4d5681461043c57806383b5daf7146104795780638c0b9c54146104a45780638da5cb5b146104e157610181565b806323b872dd1161013e57806342842e0e1161011857806342842e0e146103185780635ec163db146103415780636352211e14610382578063698d640c146103bf57610181565b806323b872dd146102a85780633ccfd60b146102d15780633fb400e2146102db57610181565b806301ffc9a71461018657806306661abd146101c357806306fdde03146101ee578063081812fc14610219578063095ea7b3146102565780630ce90ec21461027f575b600080fd5b34801561019257600080fd5b506101ad60048036038101906101a891906125de565b610669565b6040516101ba9190612626565b60405180910390f35b3480156101cf57600080fd5b506101d861074b565b6040516101e5919061265a565b60405180910390f35b3480156101fa57600080fd5b50610203610755565b604051610210919061270e565b60405180910390f35b34801561022557600080fd5b50610240600480360381019061023b919061275c565b6107e7565b60405161024d91906127ca565b60405180910390f35b34801561026257600080fd5b5061027d60048036038101906102789190612811565b61082d565b005b34801561028b57600080fd5b506102a660048036038101906102a1919061275c565b610945565b005b3480156102b457600080fd5b506102cf60048036038101906102ca9190612851565b6109e9565b005b6102d9610a49565b005b3480156102e757600080fd5b5061030260048036038101906102fd91906128a4565b610aa7565b60405161030f91906129b8565b60405180910390f35b34801561032457600080fd5b5061033f600480360381019061033a9190612851565b610be7565b005b34801561034d57600080fd5b506103686004803603810190610363919061275c565b610c07565b6040516103799594939291906129e9565b60405180910390f35b34801561038e57600080fd5b506103a960048036038101906103a4919061275c565b610cef565b6040516103b691906127ca565b60405180910390f35b3480156103cb57600080fd5b506103e660048036038101906103e19190612b78565b610da1565b005b3480156103f457600080fd5b5061040f600480360381019061040a91906128a4565b610dad565b60405161041c919061265a565b60405180910390f35b34801561043157600080fd5b5061043a610e65565b005b34801561044857600080fd5b50610463600480360381019061045e919061275c565b610e79565b6040516104709190612bc1565b60405180910390f35b34801561048557600080fd5b5061048e610eb0565b60405161049b9190612d6d565b60405180910390f35b3480156104b057600080fd5b506104cb60048036038101906104c691906128a4565b610fef565b6040516104d89190612d6d565b60405180910390f35b3480156104ed57600080fd5b506104f66111f6565b60405161050391906127ca565b60405180910390f35b34801561051857600080fd5b50610521611220565b60405161052e919061270e565b60405180910390f35b34801561054357600080fd5b5061055e60048036038101906105599190612dbb565b6112b2565b005b34801561056c57600080fd5b5061058760048036038101906105829190612e9c565b6112c8565b005b34801561059557600080fd5b506105b060048036038101906105ab919061275c565b61132a565b6040516105bd919061270e565b60405180910390f35b3480156105d257600080fd5b506105ed60048036038101906105e8919061275c565b611392565b6040516105fa9190612626565b60405180910390f35b34801561060f57600080fd5b5061062a60048036038101906106259190612f1f565b61139f565b6040516106379190612626565b60405180910390f35b34801561064c57600080fd5b50610667600480360381019061066291906128a4565b611433565b005b60007f80ac58cd000000000000000000000000000000000000000000000000000000007bffffffffffffffffffffffffffffffffffffffffffffffffffffffff1916827bffffffffffffffffffffffffffffffffffffffffffffffffffffffff1916148061073457507f5b5e139f000000000000000000000000000000000000000000000000000000007bffffffffffffffffffffffffffffffffffffffffffffffffffffffff1916827bffffffffffffffffffffffffffffffffffffffffffffffffffffffff1916145b806107445750610743826114b7565b5b9050919050565b6000600954905090565b60606000805461076490612f8e565b80601f016020809104026020016040519081016040528092919081815260200182805461079090612f8e565b80156107dd5780601f106107b2576101008083540402835291602001916107dd565b820191906000526020600020905b8154815290600101906020018083116107c057829003601f168201915b5050505050905090565b60006107f282611521565b6004600083815260200190815260200160002060009054906101000a900473ffffffffffffffffffffffffffffffffffffffff169050919050565b600061083882610cef565b90508073ffffffffffffffffffffffffffffffffffffffff168373ffffffffffffffffffffffffffffffffffffffff1614156108a9576040517f08c379a00000000000000000000000000000000000000000000000000000000081526004016108a090613032565b60405180910390fd5b8073ffffffffffffffffffffffffffffffffffffffff166108c861156c565b73ffffffffffffffffffffffffffffffffffffffff1614806108f757506108f6816108f161156c565b61139f565b5b610936576040517f08c379a000000000000000000000000000000000000000000000000000000000815260040161092d906130c4565b60405180910390fd5b6109408383611574565b505050565b3373ffffffffffffffffffffffffffffffffffffffff1661096582610cef565b73ffffffffffffffffffffffffffffffffffffffff161461098557600080fd5b6000600a828154811061099b5761099a6130e4565b5b9060005260206000209060040201905080600301600081819054906101000a900460ff16809291906109cc90613142565b91906101000a81548160ff021916908360ff160217905550505050565b6109fa6109f461156c565b8261162d565b610a39576040517f08c379a0000000000000000000000000000000000000000000000000000000008152600401610a30906131de565b60405180910390fd5b610a448383836116c2565b505050565b610a51611929565b6000610a5b6111f6565b90508073ffffffffffffffffffffffffffffffffffffffff166108fc479081150290604051600060405180830381858888f19350505050158015610aa3573d6000803e3d6000fd5b5050565b60606000610ab483610dad565b67ffffffffffffffff811115610acd57610acc612a4d565b5b604051908082528060200260200182016040528015610b0657816020015b610af3612484565b815260200190600190039081610aeb5790505b5090506000805b600880549050811015610bdc578473ffffffffffffffffffffffffffffffffffffffff16610b3a82610cef565b73ffffffffffffffffffffffffffffffffffffffff161415610bc95760088181548110610b6a57610b696130e4565b5b906000526020600020016040518060200160405290816000820160009054906101000a900460ff1660ff1660ff1681525050838381518110610baf57610bae6130e4565b5b60200260200101819052508180610bc5906131fe565b9250505b8080610bd4906131fe565b915050610b0d565b508192505050919050565b610c02838383604051806020016040528060008152506112c8565b505050565b600a8181548110610c1757600080fd5b9060005260206000209060040201600091509050806000018054610c3a90612f8e565b80601f0160208091040260200160405190810160405280929190818152602001828054610c6690612f8e565b8015610cb35780601f10610c8857610100808354040283529160200191610cb3565b820191906000526020600020905b815481529060010190602001808311610c9657829003601f168201915b5050505050908060010154908060020154908060030160009054906101000a900460ff16908060030160019054906101000a900460ff16905085565b6000806002600084815260200190815260200160002060009054906101000a900473ffffffffffffffffffffffffffffffffffffffff169050600073ffffffffffffffffffffffffffffffffffffffff168173ffffffffffffffffffffffffffffffffffffffff161415610d98576040517f08c379a0000000000000000000000000000000000000000000000000000000008152600401610d8f90613293565b60405180910390fd5b80915050919050565b610daa816119a7565b50565b60008073ffffffffffffffffffffffffffffffffffffffff168273ffffffffffffffffffffffffffffffffffffffff161415610e1e576040517f08c379a0000000000000000000000000000000000000000000000000000000008152600401610e1590613325565b60405180910390fd5b600360008373ffffffffffffffffffffffffffffffffffffffff1673ffffffffffffffffffffffffffffffffffffffff168152602001908152602001600020549050919050565b610e6d611929565b610e776000611bb5565b565b60088181548110610e8957600080fd5b906000526020600020016000915090508060000160009054906101000a900460ff16905081565b6060600a805480602002602001604051908101604052809291908181526020016000905b82821015610fe657838290600052602060002090600402016040518060a0016040529081600082018054610f0790612f8e565b80601f0160208091040260200160405190810160405280929190818152602001828054610f3390612f8e565b8015610f805780601f10610f5557610100808354040283529160200191610f80565b820191906000526020600020905b815481529060010190602001808311610f6357829003601f168201915b5050505050815260200160018201548152602001600282015481526020016003820160009054906101000a900460ff1660ff1660ff1681526020016003820160019054906101000a900460ff1660ff1660ff168152505081526020019060010190610ed4565b50505050905090565b60606000610ffc83610dad565b67ffffffffffffffff81111561101557611014612a4d565b5b60405190808252806020026020018201604052801561104e57816020015b61103b61249a565b8152602001906001900390816110335790505b5090506000805b600a805490508110156111eb578473ffffffffffffffffffffffffffffffffffffffff1661108282610cef565b73ffffffffffffffffffffffffffffffffffffffff1614156111d857600a81815481106110b2576110b16130e4565b5b90600052602060002090600402016040518060a00160405290816000820180546110db90612f8e565b80601f016020809104026020016040519081016040528092919081815260200182805461110790612f8e565b80156111545780601f1061112957610100808354040283529160200191611154565b820191906000526020600020905b81548152906001019060200180831161113757829003601f168201915b5050505050815260200160018201548152602001600282015481526020016003820160009054906101000a900460ff1660ff1660ff1681526020016003820160019054906101000a900460ff1660ff1660ff16815250508383815181106111be576111bd6130e4565b5b602002602001018190525081806111d4906131fe565b9250505b80806111e3906131fe565b915050611055565b508192505050919050565b6000600660009054906101000a900473ffffffffffffffffffffffffffffffffffffffff16905090565b60606001805461122f90612f8e565b80601f016020809104026020016040519081016040528092919081815260200182805461125b90612f8e565b80156112a85780601f1061127d576101008083540402835291602001916112a8565b820191906000526020600020905b81548152906001019060200180831161128b57829003601f168201915b5050505050905090565b6112c46112bd61156c565b8383611c7b565b5050565b6112d96112d361156c565b8361162d565b611318576040517f08c379a000000000000000000000000000000000000000000000000000000000815260040161130f906131de565b60405180910390fd5b61132484848484611de8565b50505050565b606061133582611521565b600061133f611e44565b9050600081511161135f576040518060200160405280600081525061138a565b8061136984611e5b565b60405160200161137a929190613381565b6040516020818303038152906040525b915050919050565b6000600282149050919050565b6000600560008473ffffffffffffffffffffffffffffffffffffffff1673ffffffffffffffffffffffffffffffffffffffff16815260200190815260200160002060008373ffffffffffffffffffffffffffffffffffffffff1673ffffffffffffffffffffffffffffffffffffffff16815260200190815260200160002060009054906101000a900460ff16905092915050565b61143b611929565b600073ffffffffffffffffffffffffffffffffffffffff168173ffffffffffffffffffffffffffffffffffffffff1614156114ab576040517f08c379a00000000000000000000000000000000000000000000000000000000081526004016114a290613417565b60405180910390fd5b6114b481611bb5565b50565b60007f01ffc9a7000000000000000000000000000000000000000000000000000000007bffffffffffffffffffffffffffffffffffffffffffffffffffffffff1916827bffffffffffffffffffffffffffffffffffffffffffffffffffffffff1916149050919050565b61152a81611fbc565b611569576040517f08c379a000000000000000000000000000000000000000000000000000000000815260040161156090613293565b60405180910390fd5b50565b600033905090565b816004600083815260200190815260200160002060006101000a81548173ffffffffffffffffffffffffffffffffffffffff021916908373ffffffffffffffffffffffffffffffffffffffff160217905550808273ffffffffffffffffffffffffffffffffffffffff166115e783610cef565b73ffffffffffffffffffffffffffffffffffffffff167f8c5be1e5ebec7d5bd14f71427d1e84f3dd0314c0f7b2291e5b200ac8c7c3b92560405160405180910390a45050565b60008061163983610cef565b90508073ffffffffffffffffffffffffffffffffffffffff168473ffffffffffffffffffffffffffffffffffffffff16148061167b575061167a818561139f565b5b806116b957508373ffffffffffffffffffffffffffffffffffffffff166116a1846107e7565b73ffffffffffffffffffffffffffffffffffffffff16145b91505092915050565b8273ffffffffffffffffffffffffffffffffffffffff166116e282610cef565b73ffffffffffffffffffffffffffffffffffffffff1614611738576040517f08c379a000000000000000000000000000000000000000000000000000000000815260040161172f906134a9565b60405180910390fd5b600073ffffffffffffffffffffffffffffffffffffffff168273ffffffffffffffffffffffffffffffffffffffff1614156117a8576040517f08c379a000000000000000000000000000000000000000000000000000000000815260040161179f9061353b565b60405180910390fd5b6117b3838383612028565b6117be600082611574565b6001600360008573ffffffffffffffffffffffffffffffffffffffff1673ffffffffffffffffffffffffffffffffffffffff168152602001908152602001600020600082825461180e919061355b565b925050819055506001600360008473ffffffffffffffffffffffffffffffffffffffff1673ffffffffffffffffffffffffffffffffffffffff1681526020019081526020016000206000828254611865919061358f565b92505081905550816002600083815260200190815260200160002060006101000a81548173ffffffffffffffffffffffffffffffffffffffff021916908373ffffffffffffffffffffffffffffffffffffffff160217905550808273ffffffffffffffffffffffffffffffffffffffff168473ffffffffffffffffffffffffffffffffffffffff167fddf252ad1be2c89b69c2b068fc378daa952ba7f163c4a11628f55a4df523b3ef60405160405180910390a461192483838361202d565b505050565b61193161156c565b73ffffffffffffffffffffffffffffffffffffffff1661194f6111f6565b73ffffffffffffffffffffffffffffffffffffffff16146119a5576040517f08c379a000000000000000000000000000000000000000000000000000000000815260040161199c90613631565b60405180910390fd5b565b60006119b36003612032565b9050600060405180602001604052808360ff1681525090506008819080600181540180825580915050600190039060005260206000200160009091909190915060008201518160000160006101000a81548160ff021916908360ff16021790555050506000611a28662386f26fc10000612032565b905060006040518060a001604052808681526020016009548152602001838152602001600160ff1681526020018560ff168152509050600a8190806001815401808255809150506001900390600052602060002090600402016000909190919091506000820151816000019080519060200190611aa69291906124cf565b50602082015181600101556040820151816002015560608201518160030160006101000a81548160ff021916908360ff16021790555060808201518160030160016101000a81548160ff021916908360ff1602179055505050611b0b33600954612077565b3373ffffffffffffffffffffffffffffffffffffffff167f14c3d8888b8ef90bf882ebae0688465f9ab9f9034602270c08a38d7b46a7ba506009548487604051611b579392919061368c565b60405180910390a27f3db481cf0d5f7501e791b0ac030c91bda8023b112fc3a48775883ed78cc924d284604051611b8e91906136c3565b60405180910390a160096000815480929190611ba9906131fe565b91905055505050505050565b6000600660009054906101000a900473ffffffffffffffffffffffffffffffffffffffff16905081600660006101000a81548173ffffffffffffffffffffffffffffffffffffffff021916908373ffffffffffffffffffffffffffffffffffffffff1602179055508173ffffffffffffffffffffffffffffffffffffffff168173ffffffffffffffffffffffffffffffffffffffff167f8be0079c531659141344cd1fd0a4f28419497f9722a3daafe3b4186f6b6457e060405160405180910390a35050565b8173ffffffffffffffffffffffffffffffffffffffff168373ffffffffffffffffffffffffffffffffffffffff161415611cea576040517f08c379a0000000000000000000000000000000000000000000000000000000008152600401611ce19061372a565b60405180910390fd5b80600560008573ffffffffffffffffffffffffffffffffffffffff1673ffffffffffffffffffffffffffffffffffffffff16815260200190815260200160002060008473ffffffffffffffffffffffffffffffffffffffff1673ffffffffffffffffffffffffffffffffffffffff16815260200190815260200160002060006101000a81548160ff0219169083151502179055508173ffffffffffffffffffffffffffffffffffffffff168373ffffffffffffffffffffffffffffffffffffffff167f17307eab39ab6107e8899845ad3d59bd9653f200f220920489ca2b5937696c3183604051611ddb9190612626565b60405180910390a3505050565b611df38484846116c2565b611dff84848484612095565b611e3e576040517f08c379a0000000000000000000000000000000000000000000000000000000008152600401611e35906137bc565b60405180910390fd5b50505050565b606060405180602001604052806000815250905090565b60606000821415611ea3576040518060400160405280600181526020017f30000000000000000000000000000000000000000000000000000000000000008152509050611fb7565b600082905060005b60008214611ed5578080611ebe906131fe565b915050600a82611ece919061380b565b9150611eab565b60008167ffffffffffffffff811115611ef157611ef0612a4d565b5b6040519080825280601f01601f191660200182016040528015611f235781602001600182028036833780820191505090505b5090505b60008514611fb057600182611f3c919061355b565b9150600a85611f4b919061383c565b6030611f57919061358f565b60f81b818381518110611f6d57611f6c6130e4565b5b60200101907effffffffffffffffffffffffffffffffffffffffffffffffffffffffffffff1916908160001a905350600a85611fa9919061380b565b9450611f27565b8093505050505b919050565b60008073ffffffffffffffffffffffffffffffffffffffff166002600084815260200190815260200160002060009054906101000a900473ffffffffffffffffffffffffffffffffffffffff1673ffffffffffffffffffffffffffffffffffffffff1614159050919050565b505050565b505050565b60008042336040516020016120489291906138d6565b6040516020818303038152906040528051906020012060001c9050828161206f919061383c565b915050919050565b61209182826040518060200160405280600081525061222c565b5050565b60006120b68473ffffffffffffffffffffffffffffffffffffffff16612287565b1561221f578373ffffffffffffffffffffffffffffffffffffffff1663150b7a026120df61156c565b8786866040518563ffffffff1660e01b81526004016121019493929190613957565b602060405180830381600087803b15801561211b57600080fd5b505af192505050801561214c57506040513d601f19601f8201168201806040525081019061214991906139b8565b60015b6121cf573d806000811461217c576040519150601f19603f3d011682016040523d82523d6000602084013e612181565b606091505b506000815114156121c7576040517f08c379a00000000000000000000000000000000000000000000000000000000081526004016121be906137bc565b60405180910390fd5b805181602001fd5b63150b7a0260e01b7bffffffffffffffffffffffffffffffffffffffffffffffffffffffff1916817bffffffffffffffffffffffffffffffffffffffffffffffffffffffff191614915050612224565b600190505b949350505050565b61223683836122aa565b6122436000848484612095565b612282576040517f08c379a0000000000000000000000000000000000000000000000000000000008152600401612279906137bc565b60405180910390fd5b505050565b6000808273ffffffffffffffffffffffffffffffffffffffff163b119050919050565b600073ffffffffffffffffffffffffffffffffffffffff168273ffffffffffffffffffffffffffffffffffffffff16141561231a576040517f08c379a000000000000000000000000000000000000000000000000000000000815260040161231190613a31565b60405180910390fd5b61232381611fbc565b15612363576040517f08c379a000000000000000000000000000000000000000000000000000000000815260040161235a90613a9d565b60405180910390fd5b61236f60008383612028565b6001600360008473ffffffffffffffffffffffffffffffffffffffff1673ffffffffffffffffffffffffffffffffffffffff16815260200190815260200160002060008282546123bf919061358f565b92505081905550816002600083815260200190815260200160002060006101000a81548173ffffffffffffffffffffffffffffffffffffffff021916908373ffffffffffffffffffffffffffffffffffffffff160217905550808273ffffffffffffffffffffffffffffffffffffffff16600073ffffffffffffffffffffffffffffffffffffffff167fddf252ad1be2c89b69c2b068fc378daa952ba7f163c4a11628f55a4df523b3ef60405160405180910390a46124806000838361202d565b5050565b6040518060200160405280600060ff1681525090565b6040518060a00160405280606081526020016000815260200160008152602001600060ff168152602001600060ff1681525090565b8280546124db90612f8e565b90600052602060002090601f0160209004810192826124fd5760008555612544565b82601f1061251657805160ff1916838001178555612544565b82800160010185558215612544579182015b82811115612543578251825591602001919060010190612528565b5b5090506125519190612555565b5090565b5b8082111561256e576000816000905550600101612556565b5090565b6000604051905090565b600080fd5b600080fd5b60007fffffffff0000000000000000000000000000000000000000000000000000000082169050919050565b6125bb81612586565b81146125c657600080fd5b50565b6000813590506125d8816125b2565b92915050565b6000602082840312156125f4576125f361257c565b5b6000612602848285016125c9565b91505092915050565b60008115159050919050565b6126208161260b565b82525050565b600060208201905061263b6000830184612617565b92915050565b6000819050919050565b61265481612641565b82525050565b600060208201905061266f600083018461264b565b92915050565b600081519050919050565b600082825260208201905092915050565b60005b838110156126af578082015181840152602081019050612694565b838111156126be576000848401525b50505050565b6000601f19601f8301169050919050565b60006126e082612675565b6126ea8185612680565b93506126fa818560208601612691565b612703816126c4565b840191505092915050565b6000602082019050818103600083015261272881846126d5565b905092915050565b61273981612641565b811461274457600080fd5b50565b60008135905061275681612730565b92915050565b6000602082840312156127725761277161257c565b5b600061278084828501612747565b91505092915050565b600073ffffffffffffffffffffffffffffffffffffffff82169050919050565b60006127b482612789565b9050919050565b6127c4816127a9565b82525050565b60006020820190506127df60008301846127bb565b92915050565b6127ee816127a9565b81146127f957600080fd5b50565b60008135905061280b816127e5565b92915050565b600080604083850312156128285761282761257c565b5b6000612836858286016127fc565b925050602061284785828601612747565b9150509250929050565b60008060006060848603121561286a5761286961257c565b5b6000612878868287016127fc565b9350506020612889868287016127fc565b925050604061289a86828701612747565b9150509250925092565b6000602082840312156128ba576128b961257c565b5b60006128c8848285016127fc565b91505092915050565b600081519050919050565b600082825260208201905092915050565b6000819050602082019050919050565b600060ff82169050919050565b612913816128fd565b82525050565b60208201600082015161292f600085018261290a565b50505050565b60006129418383612919565b60208301905092915050565b6000602082019050919050565b6000612965826128d1565b61296f81856128dc565b935061297a836128ed565b8060005b838110156129ab5781516129928882612935565b975061299d8361294d565b92505060018101905061297e565b5085935050505092915050565b600060208201905081810360008301526129d2818461295a565b905092915050565b6129e3816128fd565b82525050565b600060a0820190508181036000830152612a0381886126d5565b9050612a12602083018761264b565b612a1f604083018661264b565b612a2c60608301856129da565b612a3960808301846129da565b9695505050505050565b600080fd5b600080fd5b7f4e487b7100000000000000000000000000000000000000000000000000000000600052604160045260246000fd5b612a85826126c4565b810181811067ffffffffffffffff82111715612aa457612aa3612a4d565b5b80604052505050565b6000612ab7612572565b9050612ac38282612a7c565b919050565b600067ffffffffffffffff821115612ae357612ae2612a4d565b5b612aec826126c4565b9050602081019050919050565b82818337600083830152505050565b6000612b1b612b1684612ac8565b612aad565b905082815260208101848484011115612b3757612b36612a48565b5b612b42848285612af9565b509392505050565b600082601f830112612b5f57612b5e612a43565b5b8135612b6f848260208601612b08565b91505092915050565b600060208284031215612b8e57612b8d61257c565b5b600082013567ffffffffffffffff811115612bac57612bab612581565b5b612bb884828501612b4a565b91505092915050565b6000602082019050612bd660008301846129da565b92915050565b600081519050919050565b600082825260208201905092915050565b6000819050602082019050919050565b600082825260208201905092915050565b6000612c2482612675565b612c2e8185612c08565b9350612c3e818560208601612691565b612c47816126c4565b840191505092915050565b612c5b81612641565b82525050565b600060a0830160008301518482036000860152612c7e8282612c19565b9150506020830151612c936020860182612c52565b506040830151612ca66040860182612c52565b506060830151612cb9606086018261290a565b506080830151612ccc608086018261290a565b508091505092915050565b6000612ce38383612c61565b905092915050565b6000602082019050919050565b6000612d0382612bdc565b612d0d8185612be7565b935083602082028501612d1f85612bf8565b8060005b85811015612d5b5784840389528151612d3c8582612cd7565b9450612d4783612ceb565b925060208a01995050600181019050612d23565b50829750879550505050505092915050565b60006020820190508181036000830152612d878184612cf8565b905092915050565b612d988161260b565b8114612da357600080fd5b50565b600081359050612db581612d8f565b92915050565b60008060408385031215612dd257612dd161257c565b5b6000612de0858286016127fc565b9250506020612df185828601612da6565b9150509250929050565b600067ffffffffffffffff821115612e1657612e15612a4d565b5b612e1f826126c4565b9050602081019050919050565b6000612e3f612e3a84612dfb565b612aad565b905082815260208101848484011115612e5b57612e5a612a48565b5b612e66848285612af9565b509392505050565b600082601f830112612e8357612e82612a43565b5b8135612e93848260208601612e2c565b91505092915050565b60008060008060808587031215612eb657612eb561257c565b5b6000612ec4878288016127fc565b9450506020612ed5878288016127fc565b9350506040612ee687828801612747565b925050606085013567ffffffffffffffff811115612f0757612f06612581565b5b612f1387828801612e6e565b91505092959194509250565b60008060408385031215612f3657612f3561257c565b5b6000612f44858286016127fc565b9250506020612f55858286016127fc565b9150509250929050565b7f4e487b7100000000000000000000000000000000000000000000000000000000600052602260045260246000fd5b60006002820490506001821680612fa657607f821691505b60208210811415612fba57612fb9612f5f565b5b50919050565b7f4552433732313a20617070726f76616c20746f2063757272656e74206f776e6560008201527f7200000000000000000000000000000000000000000000000000000000000000602082015250565b600061301c602183612680565b915061302782612fc0565b604082019050919050565b6000602082019050818103600083015261304b8161300f565b9050919050565b7f4552433732313a20617070726f76652063616c6c6572206973206e6f7420746f60008201527f6b656e206f776e6572206e6f7220617070726f76656420666f7220616c6c0000602082015250565b60006130ae603e83612680565b91506130b982613052565b604082019050919050565b600060208201905081810360008301526130dd816130a1565b9050919050565b7f4e487b7100000000000000000000000000000000000000000000000000000000600052603260045260246000fd5b7f4e487b7100000000000000000000000000000000000000000000000000000000600052601160045260246000fd5b600061314d826128fd565b915060ff82141561316157613160613113565b5b600182019050919050565b7f4552433732313a2063616c6c6572206973206e6f7420746f6b656e206f776e6560008201527f72206e6f7220617070726f766564000000000000000000000000000000000000602082015250565b60006131c8602e83612680565b91506131d38261316c565b604082019050919050565b600060208201905081810360008301526131f7816131bb565b9050919050565b600061320982612641565b91507fffffffffffffffffffffffffffffffffffffffffffffffffffffffffffffffff82141561323c5761323b613113565b5b600182019050919050565b7f4552433732313a20696e76616c696420746f6b656e2049440000000000000000600082015250565b600061327d601883612680565b915061328882613247565b602082019050919050565b600060208201905081810360008301526132ac81613270565b9050919050565b7f4552433732313a2061646472657373207a65726f206973206e6f74206120766160008201527f6c6964206f776e65720000000000000000000000000000000000000000000000602082015250565b600061330f602983612680565b915061331a826132b3565b604082019050919050565b6000602082019050818103600083015261333e81613302565b9050919050565b600081905092915050565b600061335b82612675565b6133658185613345565b9350613375818560208601612691565b80840191505092915050565b600061338d8285613350565b91506133998284613350565b91508190509392505050565b7f4f776e61626c653a206e6577206f776e657220697320746865207a65726f206160008201527f6464726573730000000000000000000000000000000000000000000000000000602082015250565b6000613401602683612680565b915061340c826133a5565b604082019050919050565b60006020820190508181036000830152613430816133f4565b9050919050565b7f4552433732313a207472616e736665722066726f6d20696e636f72726563742060008201527f6f776e6572000000000000000000000000000000000000000000000000000000602082015250565b6000613493602583612680565b915061349e82613437565b604082019050919050565b600060208201905081810360008301526134c281613486565b9050919050565b7f4552433732313a207472616e7366657220746f20746865207a65726f2061646460008201527f7265737300000000000000000000000000000000000000000000000000000000602082015250565b6000613525602483612680565b9150613530826134c9565b604082019050919050565b6000602082019050818103600083015261355481613518565b9050919050565b600061356682612641565b915061357183612641565b92508282101561358457613583613113565b5b828203905092915050565b600061359a82612641565b91506135a583612641565b9250827fffffffffffffffffffffffffffffffffffffffffffffffffffffffffffffffff038211156135da576135d9613113565b5b828201905092915050565b7f4f776e61626c653a2063616c6c6572206973206e6f7420746865206f776e6572600082015250565b600061361b602083612680565b9150613626826135e5565b602082019050919050565b6000602082019050818103600083015261364a8161360e565b9050919050565b6000819050919050565b600061367661367161366c846128fd565b613651565b612641565b9050919050565b6136868161365b565b82525050565b60006060820190506136a1600083018661264b565b6136ae602083018561264b565b6136bb604083018461367d565b949350505050565b60006020820190506136d8600083018461367d565b92915050565b7f4552433732313a20617070726f766520746f2063616c6c657200000000000000600082015250565b6000613714601983612680565b915061371f826136de565b602082019050919050565b6000602082019050818103600083015261374381613707565b9050919050565b7f4552433732313a207472616e7366657220746f206e6f6e20455243373231526560008201527f63656976657220696d706c656d656e7465720000000000000000000000000000602082015250565b60006137a6603283612680565b91506137b18261374a565b604082019050919050565b600060208201905081810360008301526137d581613799565b9050919050565b7f4e487b7100000000000000000000000000000000000000000000000000000000600052601260045260246000fd5b600061381682612641565b915061382183612641565b925082613831576138306137dc565b5b828204905092915050565b600061384782612641565b915061385283612641565b925082613862576138616137dc565b5b828206905092915050565b6000819050919050565b61388861388382612641565b61386d565b82525050565b60008160601b9050919050565b60006138a68261388e565b9050919050565b60006138b88261389b565b9050919050565b6138d06138cb826127a9565b6138ad565b82525050565b60006138e28285613877565b6020820191506138f282846138bf565b6014820191508190509392505050565b600081519050919050565b600082825260208201905092915050565b600061392982613902565b613933818561390d565b9350613943818560208601612691565b61394c816126c4565b840191505092915050565b600060808201905061396c60008301876127bb565b61397960208301866127bb565b613986604083018561264b565b8181036060830152613998818461391e565b905095945050505050565b6000815190506139b2816125b2565b92915050565b6000602082840312156139ce576139cd61257c565b5b60006139dc848285016139a3565b91505092915050565b7f4552433732313a206d696e7420746f20746865207a65726f2061646472657373600082015250565b6000613a1b602083612680565b9150613a26826139e5565b602082019050919050565b60006020820190508181036000830152613a4a81613a0e565b9050919050565b7f4552433732313a20746f6b656e20616c7265616479206d696e74656400000000600082015250565b6000613a87601c83612680565b9150613a9282613a51565b602082019050919050565b60006020820190508181036000830152613ab681613a7a565b905091905056fea2646970667358221220d69d9bbd6ca9051b975562701bdece235bcfa4f31f6ca5bedfe7ef970e80635b64736f6c63430008090033",
  "linkReferences": {},
  "deployedLinkReferences": {}
}